{
  "contractName": "Puppeteer",
  "abi": [
    {
      "inputs": [
        {
          "internalType": "address",
          "name": "_SignalServiceContract",
          "type": "address"
        }
      ],
      "stateMutability": "nonpayable",
      "type": "constructor"
    },
    {
      "inputs": [
        {
          "internalType": "address",
          "name": "distContract",
          "type": "address"
        },
        {
          "internalType": "string",
          "name": "functionName",
          "type": "string"
        }
      ],
      "name": "sendSignal",
      "outputs": [
        {
          "internalType": "bytes32",
          "name": "",
          "type": "bytes32"
        }
      ],
      "stateMutability": "nonpayable",
      "type": "function"
    }
  ],
  "bytecode": "0x608060405234801561001057600080fd5b506040516106d43803806106d48339818101604052810190610032919061008d565b806000806101000a81548173ffffffffffffffffffffffffffffffffffffffff021916908373ffffffffffffffffffffffffffffffffffffffff160217905550506100ff565b600081519050610087816100e8565b92915050565b60006020828403121561009f57600080fd5b60006100ad84828501610078565b91505092915050565b60006100c1826100c8565b9050919050565b600073ffffffffffffffffffffffffffffffffffffffff82169050919050565b6100f1816100b6565b81146100fc57600080fd5b50565b6105c68061010e6000396000f3fe608060405234801561001057600080fd5b506004361061002b5760003560e01c8063d86903d414610030575b600080fd5b61004a60048036038101906100459190610270565b610060565b60405161005791906103e4565b60405180910390f35b6000808260405160200161007491906103cd565b604051602081830303815290604052805190602001207bffffffffffffffffffffffffffffffffffffffffffffffffffffffff19169050600060405180606001604052803373ffffffffffffffffffffffffffffffffffffffff1681526020018673ffffffffffffffffffffffffffffffffffffffff16815260200183815250905060008160405160200161010991906103ff565b60405160208183030381529060405280519060200120905060008060009054906101000a900473ffffffffffffffffffffffffffffffffffffffff1673ffffffffffffffffffffffffffffffffffffffff166366ca2bc0836040518263ffffffff1660e01b815260040161017d91906103e4565b602060405180830381600087803b15801561019757600080fd5b505af11580156101ab573d6000803e3d6000fd5b505050506040513d601f19601f820116820180604052508101906101cf91906102c4565b90508094505050505092915050565b60006101f16101ec8461045e565b61042d565b90508281526020810184848401111561020957600080fd5b6102148482856104f1565b509392505050565b60008135905061022b81610562565b92915050565b60008151905061024081610579565b92915050565b600082601f83011261025757600080fd5b81356102678482602086016101de565b91505092915050565b6000806040838503121561028357600080fd5b60006102918582860161021c565b925050602083013567ffffffffffffffff8111156102ae57600080fd5b6102ba85828601610246565b9150509250929050565b6000602082840312156102d657600080fd5b60006102e484828501610231565b91505092915050565b6102f6816104b5565b82525050565b610305816104c7565b82525050565b610314816104c7565b82525050565b60006103258261048e565b61032f81856104aa565b935061033f818560208601610500565b80840191505092915050565b6000610358601483610499565b91507f5441494b4f5f4252494447455f4d4553534147450000000000000000000000006000830152602082019050919050565b6060820160008201516103a160008501826102ed565b5060208201516103b460208501826102ed565b5060408201516103c760408501826102fc565b50505050565b60006103d9828461031a565b915081905092915050565b60006020820190506103f9600083018461030b565b92915050565b600060808201905081810360008301526104188161034b565b9050610427602083018461038b565b92915050565b6000604051905081810181811067ffffffffffffffff8211171561045457610453610533565b5b8060405250919050565b600067ffffffffffffffff82111561047957610478610533565b5b601f19601f8301169050602081019050919050565b600081519050919050565b600082825260208201905092915050565b600081905092915050565b60006104c0826104d1565b9050919050565b6000819050919050565b600073ffffffffffffffffffffffffffffffffffffffff82169050919050565b82818337600083830152505050565b60005b8381101561051e578082015181840152602081019050610503565b8381111561052d576000848401525b50505050565b7f4e487b7100000000000000000000000000000000000000000000000000000000600052604160045260246000fd5b61056b816104b5565b811461057657600080fd5b50565b610582816104c7565b811461058d57600080fd5b5056fea264697066735822122084eae9ab29cd2f93f24e2b8875229086c61d6c9f7f88e836b3beeb7a0566c45164736f6c63430008000033",
  "immutableReferences": {},
  "source": "pragma solidity ^0.8.0;\n\ninterface ISignalService {\n    function sendSignal(bytes32 signal) external returns (bytes32 storageSlot);\n}\n\ncontract Puppeteer {\n\n    ISignalService private iSignalService;\n\n    struct Message {\n        address asker;\n        address distContract;\n        bytes32 funcSig;\n    }\n\n    constructor(address _SignalServiceContract) public {\n        iSignalService = ISignalService(_SignalServiceContract);\n    }\n\n    // INFO: make message hashed and send it as a signal\n    function sendSignal(address distContract, string memory functionName) public returns (bytes32) {\n        bytes32 funcSig = bytes4(keccak256(abi.encodePacked(functionName)));\n\n        Message memory message = Message({\n            asker: msg.sender,\n            distContract: distContract,\n            funcSig: funcSig\n        });\n\n        bytes32 signal = keccak256(abi.encode(\"TAIKO_BRIDGE_MESSAGE\", message));\n        bytes32 result = iSignalService.sendSignal(signal);\n        return result;\n    }\n}",
  "sourcePath": "/Users/suzukimasayuki/.ghq/github.com/s-ekai/superposition_l1/contracts/Puppeteer.sol",
  "compiler": {
    "name": "solc",
    "version": "0.8.0+commit.c7dfd78e.Emscripten.clang"
  },
  "schemaVersion": "3.4.13",
  "updatedAt": "2023-04-15T08:21:01.961Z",
  "networkType": "ethereum",
  "devdoc": {
    "kind": "dev",
    "methods": {},
    "version": 1
  },
  "userdoc": {
    "kind": "user",
    "methods": {},
    "version": 1
  }
}