{
  "contractName": "Superposition",
  "abi": [
    {
      "inputs": [
        {
          "internalType": "address",
          "name": "_bridgeContract",
          "type": "address"
        },
        {
          "internalType": "uint256",
          "name": "_l1ChainId",
          "type": "uint256"
        },
        {
          "internalType": "uint256",
          "name": "_l2ChainId",
          "type": "uint256"
        }
      ],
      "stateMutability": "nonpayable",
      "type": "constructor"
    },
    {
      "inputs": [],
      "name": "bridgeContract",
      "outputs": [
        {
          "internalType": "address",
          "name": "",
          "type": "address"
        }
      ],
      "stateMutability": "view",
      "type": "function",
      "constant": true
    },
    {
      "inputs": [],
      "name": "currentMessageId",
      "outputs": [
        {
          "internalType": "uint256",
          "name": "",
          "type": "uint256"
        }
      ],
      "stateMutability": "view",
      "type": "function",
      "constant": true
    },
    {
      "inputs": [],
      "name": "l1ChainId",
      "outputs": [
        {
          "internalType": "uint256",
          "name": "",
          "type": "uint256"
        }
      ],
      "stateMutability": "view",
      "type": "function",
      "constant": true
    },
    {
      "inputs": [],
      "name": "l2ChainId",
      "outputs": [
        {
          "internalType": "uint256",
          "name": "",
          "type": "uint256"
        }
      ],
      "stateMutability": "view",
      "type": "function",
      "constant": true
    },
    {
      "inputs": [],
      "name": "l2Contract",
      "outputs": [
        {
          "internalType": "address",
          "name": "",
          "type": "address"
        }
      ],
      "stateMutability": "view",
      "type": "function",
      "constant": true
    },
    {
      "inputs": [],
      "name": "owner",
      "outputs": [
        {
          "internalType": "address",
          "name": "",
          "type": "address"
        }
      ],
      "stateMutability": "view",
      "type": "function",
      "constant": true
    },
    {
      "inputs": [],
      "name": "send",
      "outputs": [
        {
          "internalType": "string",
          "name": "",
          "type": "string"
        }
      ],
      "stateMutability": "payable",
      "type": "function",
      "payable": true
    }
  ],
  "bytecode": "0x608060405234801561001057600080fd5b50604051610b0f380380610b0f83398181016040528101906100329190610134565b336000806101000a81548173ffffffffffffffffffffffffffffffffffffffff021916908373ffffffffffffffffffffffffffffffffffffffff16021790555082600160006101000a81548173ffffffffffffffffffffffffffffffffffffffff021916908373ffffffffffffffffffffffffffffffffffffffff160217905550816004819055508060058190555033600660006101000a81548173ffffffffffffffffffffffffffffffffffffffff021916908373ffffffffffffffffffffffffffffffffffffffff1602179055505050506101ed565b600081519050610119816101bf565b92915050565b60008151905061012e816101d6565b92915050565b60008060006060848603121561014957600080fd5b60006101578682870161010a565b93505060206101688682870161011f565b92505060406101798682870161011f565b9150509250925092565b600061018e82610195565b9050919050565b600073ffffffffffffffffffffffffffffffffffffffff82169050919050565b6000819050919050565b6101c881610183565b81146101d357600080fd5b50565b6101df816101b5565b81146101ea57600080fd5b50565b610913806101fc6000396000f3fe6080604052600436106100705760003560e01c8063b46300ec1161004e578063b46300ec146100f6578063cd59658314610114578063d6ae3cd51461013f578063f8e4e7331461016a57610070565b806312622e5b146100755780633aced149146100a05780638da5cb5b146100cb575b600080fd5b34801561008157600080fd5b5061008a610195565b6040516100979190610715565b60405180910390f35b3480156100ac57600080fd5b506100b561019b565b6040516100c291906106b6565b60405180910390f35b3480156100d757600080fd5b506100e06101c1565b6040516100ed91906106b6565b60405180910390f35b6100fe6101e5565b60405161010b91906106d1565b60405180910390f35b34801561012057600080fd5b5061012961043f565b60405161013691906106b6565b60405180910390f35b34801561014b57600080fd5b50610154610465565b6040516101619190610715565b60405180910390f35b34801561017657600080fd5b5061017f61046b565b60405161018c9190610715565b60405180910390f35b60045481565b600660009054906101000a900473ffffffffffffffffffffffffffffffffffffffff1681565b60008054906101000a900473ffffffffffffffffffffffffffffffffffffffff1681565b60606000600160009054906101000a900473ffffffffffffffffffffffffffffffffffffffff1690506000604051806101a00160405280631fd94b7081526020013373ffffffffffffffffffffffffffffffffffffffff168152602001600454815260200160055481526020013373ffffffffffffffffffffffffffffffffffffffff1681526020013373ffffffffffffffffffffffffffffffffffffffff168152602001600073ffffffffffffffffffffffffffffffffffffffff168152602001348152602001600081526020016000815260200160008152602001600067ffffffffffffffff811115610303577f4e487b7100000000000000000000000000000000000000000000000000000000600052604160045260246000fd5b6040519080825280601f01601f1916602001820160405280156103355781602001600182028036833780820191505090505b5081526020016040518060200160405280600081525081525090508173ffffffffffffffffffffffffffffffffffffffff166396e17852826040518263ffffffff1660e01b815260040161038991906106f3565b602060405180830381600087803b1580156103a357600080fd5b505af19250505080156103d457506040513d601f19601f820116820180604052508101906103d19190610486565b60015b610400576103e0610810565b806103eb57506103f6565b80935050505061043c565b3d6000803e3d6000fd5b6040518060400160405280600781526020017f737563636573730000000000000000000000000000000000000000000000000081525093505050505b90565b600160009054906101000a900473ffffffffffffffffffffffffffffffffffffffff1681565b60055481565b60025481565b600081519050610480816108c6565b92915050565b60006020828403121561049857600080fd5b60006104a684828501610471565b91505092915050565b6104b881610779565b82525050565b6104c781610779565b82525050565b60006104d882610730565b6104e28185610746565b93506104f28185602086016107bf565b6104fb816107f2565b840191505092915050565b60006105118261073b565b61051b8185610757565b935061052b8185602086016107bf565b610534816107f2565b840191505092915050565b600061054a8261073b565b6105548185610768565b93506105648185602086016107bf565b61056d816107f2565b840191505092915050565b60006101a0830160008301516105916000860182610698565b5060208301516105a460208601826104af565b5060408301516105b76040860182610698565b5060608301516105ca6060860182610698565b5060808301516105dd60808601826104af565b5060a08301516105f060a08601826104af565b5060c083015161060360c08601826104af565b5060e083015161061660e0860182610698565b5061010083015161062b610100860182610698565b50610120830151610640610120860182610698565b50610140830151610655610140860182610698565b5061016083015184820361016086015261066f82826104cd565b91505061018083015184820361018086015261068b8282610506565b9150508091505092915050565b6106a1816107b5565b82525050565b6106b0816107b5565b82525050565b60006020820190506106cb60008301846104be565b92915050565b600060208201905081810360008301526106eb818461053f565b905092915050565b6000602082019050818103600083015261070d8184610578565b905092915050565b600060208201905061072a60008301846106a7565b92915050565b600081519050919050565b600081519050919050565b600082825260208201905092915050565b600082825260208201905092915050565b600082825260208201905092915050565b600061078482610795565b9050919050565b6000819050919050565b600073ffffffffffffffffffffffffffffffffffffffff82169050919050565b6000819050919050565b60005b838110156107dd5780820151818401526020810190506107c2565b838111156107ec576000848401525b50505050565b6000601f19601f8301169050919050565b60008160e01c9050919050565b600060443d1015610820576108c3565b60046000803e610831600051610803565b6308c379a0811461084257506108c3565b60405160043d036004823e80513d602482011167ffffffffffffffff8211171561086e575050506108c3565b808201805167ffffffffffffffff81111561088d5750505050506108c3565b8060208301013d85018111156108a8575050505050506108c3565b6108b1826107f2565b60208401016040528296505050505050505b90565b6108cf8161078b565b81146108da57600080fd5b5056fea26469706673582212205a6dbf54ebe6b4bc4d34963b43ecc711d85d218eeb1d0d5fdc54ed05e13be7f964736f6c63430008000033",
  "immutableReferences": {},
  "source": "pragma solidity ^0.8.0;\n\ninterface BridgeInterface {\n    struct Message {\n        uint256 id;\n        address sender;\n        uint256 srcChainId;\n        uint256 destChainId;\n        address owner;\n        address to;\n        address refundAddress;\n        uint256 depositValue;\n        uint256 callValue;\n        uint256 processingFee;\n        uint256 gasLimit;\n        bytes data;\n        string memo;\n    }\n    function sendMessage( BridgeInterface.Message memory message ) external payable returns (bytes32 msgHash);\n}\n\ncontract Superposition {\n\n    address public owner;\n    address public bridgeContract;\n    uint256 public currentMessageId;\n    uint256 private nonce;\n    uint256 public l1ChainId;\n    uint256 public l2ChainId;\n    address public l2Contract;\n\n    modifier onlyOwner() {\n        require(msg.sender == owner, \"Only contract owner can call this function\");\n        _;\n    }\n\n    constructor(address _bridgeContract, uint256 _l1ChainId, uint256 _l2ChainId) public {\n        owner = msg.sender;\n        bridgeContract = _bridgeContract;\n        l1ChainId = _l1ChainId;\n        l2ChainId = _l2ChainId;\n        l2Contract = msg.sender;\n    }\n\n    function send() public payable returns (string memory) {\n        BridgeInterface bridgeContractInstance = BridgeInterface(bridgeContract);\n\n        BridgeInterface.Message memory message = BridgeInterface.Message(\n            534334320,\n            msg.sender,\n            l1ChainId,\n            l2ChainId,\n            msg.sender,\n            msg.sender,\n            address(0),\n            msg.value,\n            0,\n            0,\n            0,\n            new bytes(0),\n            \"\"\n        );\n        try bridgeContractInstance.sendMessage(message) returns (bytes32 msgHash) {\n            return 'success';\n        } catch Error(string memory errorMessage) {\n            return errorMessage;\n        }\n\n    }\n\n\n    function getRandom() private returns (uint256) {\n        uint256 randomNumber = uint256(keccak256(abi.encodePacked(nonce, block.timestamp, block.difficulty, msg.sender)));\n        nonce++;\n        return randomNumber;\n    }\n}",
  "sourcePath": "/Users/suzukimasayuki/.ghq/github.com/s-ekai/superposition_l1/contracts/Superposition.sol",
  "compiler": {
    "name": "solc",
    "version": "0.8.0+commit.c7dfd78e.Emscripten.clang"
  },
  "schemaVersion": "3.4.13",
  "updatedAt": "2023-04-14T15:53:25.947Z",
  "networkType": "ethereum",
  "devdoc": {
    "kind": "dev",
    "methods": {},
    "version": 1
  },
  "userdoc": {
    "kind": "user",
    "methods": {},
    "version": 1
  }
}